{
  "contractName": "token_migration",
  "abi": [
    {
      "inputs": [],
      "stateMutability": "nonpayable",
      "type": "constructor"
    },
    {
      "anonymous": false,
      "inputs": [
        {
          "indexed": false,
          "internalType": "uint256",
          "name": "oldSponToken",
          "type": "uint256"
        },
        {
          "indexed": false,
          "internalType": "uint256",
          "name": "newSponToken",
          "type": "uint256"
        },
        {
          "indexed": false,
          "internalType": "uint256",
          "name": "committedBalance",
          "type": "uint256"
        }
      ],
      "name": "SwapToken",
      "type": "event"
    },
    {
      "inputs": [
        {
          "internalType": "address",
          "name": "",
          "type": "address"
        }
      ],
      "name": "committedBalance",
      "outputs": [
        {
          "internalType": "uint256",
          "name": "",
          "type": "uint256"
        }
      ],
      "stateMutability": "view",
      "type": "function",
      "constant": true
    },
    {
      "inputs": [
        {
          "internalType": "uint256",
          "name": "userCommittedBalance",
          "type": "uint256"
        }
      ],
      "name": "swapToken",
      "outputs": [],
      "stateMutability": "nonpayable",
      "type": "function"
    },
    {
      "inputs": [
        {
          "internalType": "address",
          "name": "_user",
          "type": "address"
        }
      ],
      "name": "oldSponBalance",
      "outputs": [
        {
          "internalType": "uint256",
          "name": "",
          "type": "uint256"
        }
      ],
      "stateMutability": "view",
      "type": "function",
      "constant": true
    },
    {
      "inputs": [
        {
          "internalType": "address",
          "name": "_user",
          "type": "address"
        }
      ],
      "name": "newSponBalance",
      "outputs": [
        {
          "internalType": "uint256",
          "name": "",
          "type": "uint256"
        }
      ],
      "stateMutability": "view",
      "type": "function",
      "constant": true
    },
    {
      "inputs": [],
      "name": "getOwnerGiftAddress",
      "outputs": [
        {
          "internalType": "address",
          "name": "",
          "type": "address"
        }
      ],
      "stateMutability": "view",
      "type": "function",
      "constant": true
    },
    {
      "inputs": [],
      "name": "getuserAddress",
      "outputs": [
        {
          "internalType": "address",
          "name": "",
          "type": "address"
        }
      ],
      "stateMutability": "view",
      "type": "function",
      "constant": true
    },
    {
      "inputs": [
        {
          "internalType": "address",
          "name": "_user",
          "type": "address"
        }
      ],
      "name": "getUserCommittedBalance",
      "outputs": [
        {
          "internalType": "uint256",
          "name": "",
          "type": "uint256"
        }
      ],
      "stateMutability": "view",
      "type": "function",
      "constant": true
    }
  ],
  "bytecode": "0x6080604052600180546001600160a01b031990811673877d2a451f5b82b9a5fb49185df0616c7ac7018d17909155600280548216739061ea78be548737728dbfdb06c685af19f15f5717905560038054909116732d51921170b69c07329cf203c53d3f031588a82917905534801561007657600080fd5b50600080546001600160a01b03191633179055610682806100986000396000f3fe608060405234801561001057600080fd5b506004361061007d5760003560e01c80638d13aedf1161005b5780638d13aedf146100fd5780639cab033d14610105578063d08c851f1461012b578063ff3f2fa9146101515761007d565b80633e6bd5fc146100825780634bbf3a7a146100ba5780636a32d255146100d9575b600080fd5b6100a86004803603602081101561009857600080fd5b50356001600160a01b0316610177565b60408051918252519081900360200190f35b6100d7600480360360208110156100d057600080fd5b50356101f9565b005b6100e16105bd565b604080516001600160a01b039092168252519081900360200190f35b6100e16105c1565b6100a86004803603602081101561011b57600080fd5b50356001600160a01b03166105d0565b6100a86004803603602081101561014157600080fd5b50356001600160a01b03166105eb565b6100a86004803603602081101561016757600080fd5b50356001600160a01b031661063a565b600254604080516370a0823160e01b81526001600160a01b0384811660048301529151600093849316916370a08231916024808301926020929190829003018186803b1580156101c657600080fd5b505afa1580156101da573d6000803e3d6000fd5b505050506040513d60208110156101f057600080fd5b50519392505050565b600154604080516370a0823160e01b81523360048201819052915191926000926001600160a01b03909116916370a08231916024808301926020929190829003018186803b15801561024a57600080fd5b505afa15801561025e573d6000803e3d6000fd5b505050506040513d602081101561027457600080fd5b505190508281036001600160a01b0383166102d6576040805162461bcd60e51b815260206004820152601860248201527f53706f6e7365653a20496e76616c696420616464726573730000000000000000604482015290519081900360640190fd5b6000821161032b576040805162461bcd60e51b815260206004820152601d60248201527f53706f6e7365653a20796f75722062616c616e6365206973207a65726f000000604482015290519081900360640190fd5b8382101561037a576040805162461bcd60e51b815260206004820152601760248201527614dc1bdb9cd9594e881a5b9d985b1a5908185b5bdd5b9d604a1b604482015290519081900360640190fd5b600254600054604080516370a0823160e01b81526001600160a01b0392831660048201529051849392909216916370a0823191602480820192602092909190829003018186803b1580156103cd57600080fd5b505afa1580156103e1573d6000803e3d6000fd5b505050506040513d60208110156103f757600080fd5b50511015610446576040805162461bcd60e51b815260206004820152601760248201527614dc1bdb9cd9594e881a5b9d985b1a5908185b5bdd5b9d604a1b604482015290519081900360640190fd5b6001600160a01b0380841660008181526004602081815260408084208a905560015460035482516323b872dd60e01b8152948501969096529486166024840152604483018890525193909416936323b872dd9360648084019492939192918390030190829087803b1580156104ba57600080fd5b505af11580156104ce573d6000803e3d6000fd5b505050506040513d60208110156104e457600080fd5b505060025460008054604080516323b872dd60e01b81526001600160a01b039283166004820152878316602482015260448101869052905191909316926323b872dd9260648083019360209390929083900390910190829087803b15801561054b57600080fd5b505af115801561055f573d6000803e3d6000fd5b505050506040513d602081101561057557600080fd5b5050604080518381526020810183905280820186905290517f4640160a257b8cd877d29fc6ee2e8b5191bdf9e947a876a3a2cc4a2160ea35109181900360600190a150505050565b3390565b6000546001600160a01b031690565b6001600160a01b031660009081526004602052604090205490565b600154604080516370a0823160e01b81526001600160a01b0384811660048301529151600093849316916370a08231916024808301926020929190829003018186803b1580156101c657600080fd5b6004602052600090815260409020548156fea2646970667358221220945de4f6fad1c66def0f697de846429e563c52496624c0eceeae19415318bcf264736f6c63430007040033",
  "source": "// SPDX-License-Identifier: MIT\r\npragma solidity >=0.4.22 <0.9.0;\r\n\r\nimport \"@openzeppelin/contracts/token/ERC20/ERC20.sol\";\r\nimport \"@openzeppelin/contracts/token/ERC20/ERC20Burnable.sol\";\r\n\r\ncontract token_migration{\r\n    \r\n    address GiftingAddress;\r\n    \r\n    constructor() {\r\n     GiftingAddress = msg.sender;\r\n    }\r\n    \r\n    // this contract is to swap the old Spon tokens with the new Spon tokens \r\n    // if the user doesnt have any old spon tokens the swap function will not continue and will drop an error\r\n    // after the swap complets an event will take a place and his old spon tokens will be swapped\r\n    \r\n    // this is the real contract address of the old token\r\n    // ERC20 oldSponToken = ERC20(0xD1992F0BAcfdb7D195a819306c30eA65F73080af);\r\n    \r\n    // this is the real contract address of the new token\r\n    // ERC20 newSponToken = ERC20(0xasfasfasfsafsafasfsafasfasfsafasffasfasf);\r\n    \r\n    \r\n    // this is the fake (for testing) contract address of the old tokenQuantity\r\n    ERC20 oldTestSponToken = ERC20(0x877D2A451F5B82B9a5Fb49185df0616C7AC7018d);\r\n    \r\n    // this is the fake (for testing) contract address of the new tokenQuantity\r\n    ERC20 newTestSponToken = ERC20(0x9061Ea78Be548737728dBfDB06C685AF19f15F57);\r\n        \r\n    // this is the address where the old Spon tokens will be dumped to\r\n    address carryingAddress = 0x2D51921170B69c07329cF203C53d3F031588A829;\r\n\r\n    // this mapp to save the commit balance of the users\r\n    mapping(address=>uint256) public committedBalance;\r\n    \r\n    event SwapToken(uint256 oldSponToken, uint256 newSponToken, uint256 committedBalance);\r\n    \r\n    function swapToken(uint256 userCommittedBalance) public{\r\n        \r\n        address ownerOfOldSpon = msg.sender;\r\n        uint256 userOldSponBalance = oldTestSponToken.balanceOf(ownerOfOldSpon);\r\n        uint256 userNewSponBalance = userOldSponBalance - userCommittedBalance;\r\n\r\n        require(ownerOfOldSpon != address(0), \"Sponsee: Invalid address\");\r\n        require(userOldSponBalance > 0, \"Sponsee: your balance is zero\");\r\n        require(userOldSponBalance >= userCommittedBalance, \"Sponsee: invalid amount\");\r\n        require(newTestSponToken.balanceOf(GiftingAddress)>= userNewSponBalance, \"Sponsee: invalid amount\");\r\n\r\n        committedBalance[ownerOfOldSpon] = userCommittedBalance;\r\n\r\n        oldTestSponToken.transferFrom(ownerOfOldSpon, carryingAddress, userOldSponBalance);\r\n        \r\n        newTestSponToken.transferFrom(GiftingAddress, ownerOfOldSpon, userNewSponBalance);\r\n        \r\n        emit SwapToken(userOldSponBalance, userNewSponBalance, userCommittedBalance);\r\n    }\r\n    \r\n    \r\n    // Query functions\r\n    \r\n    // this function might be usefull to query for the user old Spon tokens to display in frontend when the user connects his wallet\r\n    function oldSponBalance(address _user) public view returns (uint256){\r\n       uint256 QueryBalance =  oldTestSponToken.balanceOf(_user);\r\n       return QueryBalance;\r\n    }\r\n    \r\n    // this function might be usefull to query for the user new Spon tokens to display in frontend when the user connects his wallet\r\n    function newSponBalance(address _user) public view returns (uint256){\r\n       uint256 QueryBalance2 =  newTestSponToken.balanceOf(_user);\r\n       return QueryBalance2;\r\n    }\r\n    \r\n    function getOwnerGiftAddress() public view returns(address){\r\n        return GiftingAddress;\r\n    }\r\n\r\n    function getuserAddress() public view returns(address){\r\n        address userAddress = msg.sender;\r\n        return userAddress;\r\n    }\r\n\r\n    function getUserCommittedBalance(address _user) public view returns (uint256){\r\n        uint256 queryCommittedBalance = committedBalance[_user];\r\n        return queryCommittedBalance;\r\n    }\r\n}",
  "sourcePath": "C:/Users/Zaid/Desktop/New folder (4)/token_Migration/src/contracts/token_migration.sol",
  "compiler": {
    "name": "solc",
    "version": "0.7.4+commit.3f05b770.Emscripten.clang"
  },
  "schemaVersion": "3.0.22",
  "updatedAt": "2021-09-30T12:14:40.697Z",
  "networkType": "ethereum",
  "devdoc": {
    "kind": "dev",
    "methods": {},
    "version": 1
  },
  "userdoc": {
    "kind": "user",
    "methods": {},
    "version": 1
  }
}